:100000000C945E000C9486000C9486000C94860080
:100010000C9486000C9486000C9486000C94C60404
:100020000C9486000C9486000C9486000C94860038
:100030000C9486000C9486000C9486000C94860028
:100040000C947C040C9486000C9486000C9486001E
:100050000C9486000C9486000C9486000C94860008
:100060000C9486000C9486000000000024002700F9
:100070002A0000000008000201000003040700003D
:10008000000000000000010204081020408001026E
:1000900004081020010204081020000000002500C0
:1000A00028002B00040404040404040402020202D5
:1000B00002020303030303030200A40611241FBE6C
:1000C000CFEFD8E0DEBFCDBF11E0A0E0B1E0E6EEBB
:1000D000F0E102C005900D92AA35B107D9F721E0F1
:1000E000AAE5B1E001C01D92AE38B207E1F710E019
:1000F000CEE5D0E004C02197FE010E946B08CD350B
:10010000D107C9F70E9448050C9471080C940000AF
:1001100090E0FC01EE58FF4F2491FC01EA57FF4F9D
:100120003491FC01EC55FF4FE491EE23C9F02223FA
:1001300039F0233001F1A8F4213019F1223029F1EE
:10014000F0E0EE0FFF1FE656FF4FA591B4918FB779
:10015000F894EC91611126C030953E233C938FBFFB
:1001600008952730A9F02830C9F0243049F780914C
:1001700080008F7D03C0809180008F778093800006
:10018000DFCF84B58F7784BDDBCF84B58F7DFBCF88
:100190008091B0008F778093B000D2CF8091B00073
:1001A0008F7DF9CF3E2BDACFCF93DF9390E0FC0128
:1001B000EA57FF4F24918C559F4FFC01849188236F
:1001C000D1F090E0880F991FFC01E859FF4FA591ED
:1001D000B491FC01E656FF4FC591D49161110EC058
:1001E0009FB7F8948C91E22FE0958E238C93288111
:1001F000E223E8839FBFDF91CF9108958FB7F894F2
:10020000EC91E22BEC938FBFF6CFCF92DF92EF927F
:10021000FF920F931F93CF938B0190910001891749
:1002200059F09F3F09F44AC0CF911F910F91FF9061
:10023000EF90DF90CF900895E8EBF0E0C491C7FD18
:10024000F3CF61E00E94D400C1114CC0980150E08E
:1002500040E062E17AE780E090E00E9429086901CD
:100260007A0181E0C81AD108E108F10885B5887FD4
:10027000846085BD9801220F331FA4EFB1E00E9476
:10028000480828EE33E040E050E00E940708C13003
:1002900009F4BEC0C23009F4CDC0C111C5CFC7BC7E
:1002A0002093720130937301409374015093750150
:1002B00080916E00826080936E00B6CF80930001C3
:1002C000E8EBF0E0C491CF3F09F4AECFC13009F4C0
:1002D00040C010F1C23009F45EC0C7FDA5CF61E097
:1002E0000E94D400980150E040E0C23009F079C08B
:1002F00064E274EF80E090E00E94290869017A01CD
:1003000081E0C81AD108E108F1088091B100887F26
:1003100085608093B100AECF14BC15BC94B59260DB
:1003200094BD95B5916095BD282F30E0F901EC554D
:10033000FF4FE491F0E0EE0FFF1FE656FF4F4591AF
:100340005491F901EA57FF4FE491E0936901C0E04D
:1003500078CF109280001092810090918100986077
:100360009093810090918100916090938100282F5B
:1003700030E0F901EC55FF4FE491F0E0EE0FFF1F84
:10038000E656FF4F45915491F901EA57FF4FE4912A
:10039000E093680156CF1092B0001092B100909196
:1003A000B00092609093B0009091B10091609093F2
:1003B000B100282F30E0F901EC55FF4FE491F0E057
:1003C000EE0FFF1FE656FF4F459154915093670182
:1003D00040936601F901EA57FF4FE491E09365010C
:1003E00030CF60E072E18AE790E00E94290869015D
:1003F0007A0181E0C81AD108E108F108C13009F09A
:1004000039CF80918100887F81608093810032CFD5
:10041000D0928900C092880020936E0130936F01C2
:10042000409370015093710180916F0082608093BE
:100430006F00FACEC092B30020936A0130936B0133
:1004400040936C0150936D018091700082608093A5
:100450007000EACE8E3008F08E50877080648093F2
:100460007C0080917A00806480937A0080917A0089
:1004700086FDFCCF809178009091790008953FB778
:10048000F8948091610190916201A0916301B09113
:10049000640126B5A89B05C02F3F19F00196A11D48
:1004A000B11D3FBFBA2FA92F982F8827BC01CD01BE
:1004B000620F711D811D911D42E0660F771F881F1D
:1004C000991F4A95D1F708958F929F92AF92BF924C
:1004D000CF92DF92EF92FF924B015C010E943F02AC
:1004E0006B017C010E943F026C197D098E099F09F6
:1004F000683E734081059105A8F321E0821A9108B6
:10050000A108B10888EEC80E83E0D81EE11CF11CDA
:1005100081149104A104B10429F7FF90EF90DF90BA
:10052000CF90BF90AF909F908F900895AF92BF9261
:10053000CF92DF92EF92FF920F931F93CF93DF93AF
:100540006C017B018B01040F151FEB015E01AE18DE
:10055000BF08C017D10759F06991D601ED91FC9100
:100560000190F081E02DC6010995892B79F7C5012D
:10057000DF91CF911F910F91FF90EF90DF90CF907F
:10058000BF90AF900895089590E080E008958F9215
:100590009F92AF92BF920F931F93CF93DF93CDB7EC
:1005A000DEB7A1970FB6F894DEBF0FBECDBF19A27C
:1005B000423008F44AE08E010F5D1F4F842E912CCB
:1005C000B12CA12CA50194010E940708E62FB901C6
:1005D000CA01EA3044F5E05DD801EE938D01232B8A
:1005E000242B252B79F790E080E0109769F0FD012E
:1005F00001900020E9F73197AF014A1B5B0BBD0169
:1006000086E791E00E949602A1960FB6F894DEBFAD
:100610000FBECDBFDF91CF911F910F91BF90AF90D3
:100620009F908F900895E95CD7CFFC010190002046
:10063000E9F73197AF01481B590BBC0186E791E000
:100640000C949602CF93DF93EC0160E08E810E94C0
:10065000880061E08E810E94880060E08E810E94A7
:1006600088008BE891E00197F1F7DF91CF91089531
:10067000CF92DF92EF92FF920F931F93CF93DF936E
:100680006C017C0187E0E80EF11CD0E0C0E0062F91
:1006900010E0B8010C2E02C0759567950A94E2F738
:1006A0006170F70181917F010E9488002196C4301A
:1006B000D10579F7C601DF91CF911F910F91FF907E
:1006C000EF90DF90CF900C942203CF92DF92EF92C5
:1006D000FF920F931F93CF93DF93EC01F62E642FBD
:1006E0008C810E9488008D818F3F19F060E00E940C
:1006F00088000F2D10E08F8584FF25C06E0187E0F4
:10070000C80ED11CF12CE12CB8010E2C02C075953D
:1007100067950A94E2F76170F60181916F010E947A
:100720008800FFEFEF1AFF0A88E0E816F10461F78E
:10073000CE01DF91CF911F910F91FF90EF90DF904D
:10074000CF900C942203B80184E0759567958A9543
:10075000E1F7CE010E9438036F2DCE01DF91CF91DA
:100760001F910F91FF90EF90DF90CF900C94380382
:1007700040E0682F86E791E00C94650381E00E94D9
:10078000B8038BE39FE10197F1F70895CF93DF93CF
:10079000823029F49091850198609093850180932F
:1007A000890110928A0180E480938B0180E180931B
:1007B0008C0180E580938D0161E080917A010E9437
:1007C000D40080917B018F3F19F061E00E94D4003A
:1007D00061E080917C010E94D400C6E7D1E09E01D7
:1007E000265731408091850184FD0BC084E090E064
:1007F00021962817390744F461E08E810E94D400C5
:10080000EECF88E090E0F4CF8BE39DE00197F1F725
:1008100060E080917A010E94880060E080917C0114
:100820000E94880080917B018F3F19F060E00E9458
:1008300088008091850184FD34C063E086E791E003
:100840000E943803CBE4D6E4CE010197F1F763E0D0
:1008500086E791E00E9438032197F1F763E086E78D
:1008600091E00E94380383E592E00197F1F762E09E
:1008700086E791E00E9438038091850180620E94A2
:10088000B80384E0809386018CE00E94B8030E9444
:10089000BE0382E08093870186E0DF91CF910C94C4
:1008A000B80380620E94B8038BE496E40197F1F7E5
:1008B0008091850180620E94B80383E592E00197F0
:1008C000F1F78091850180620E94B803D5CF9091A5
:1008D0008901691710F06FEF690FE62FF0E0EA5811
:1008E000FE4F9489890F80680C94B80341E00E9400
:1008F000650381E090E008951F920F920FB60F926A
:1009000011242F933F938F939F93AF93BF93809125
:100910005D0190915E01A0915F01B0916001309105
:100920005C0123E0230F2D3758F50196A11DB11D61
:1009300020935C0180935D0190935E01A0935F0121
:10094000B09360018091610190916201A091630177
:10095000B09164010196A11DB11D80936101909336
:100960006201A0936301B0936401BF91AF919F9125
:100970008F913F912F910F900FBE0F901F90189560
:1009800026E8230F0296A11DB11DD2CF1F920F9210
:100990000FB60F9211242F933F934F935F936F9352
:1009A0007F938F939F93AF93BF93EF93FF93809128
:1009B0006A0190916B01A0916C01B0916D01892B3E
:1009C0008A2B8B2BD1F190916501E0916601F0911A
:1009D000670180818927808380916A0190916B01F2
:1009E000A0916C01B0916D01181619061A061B062C
:1009F0009CF480916A0190916B01A0916C01B0917F
:100A00006D010197A109B10980936A0190936B016F
:100A1000A0936C01B0936D01FF91EF91BF91AF91E5
:100A20009F918F917F916F915F914F913F912F9106
:100A30000F900FBE0F901F90189580910001E8EB6A
:100A4000F0E0E4919FEF90930001E13051F030F03D
:100A5000E23069F060E00E948800DECF10926E0004
:100A6000F9CF90916F009D7F90936F00F3CF90919D
:100A700070009D7F9093700091E09093B0009091F2
:100A8000B100987F94609093B1001092B300E2CFD0
:100A9000789484B5826084BD84B5816084BD85B559
:100AA000826085BD85B5816085BD80916E00816065
:100AB00080936E001092810080918100826080930B
:100AC000810080918100816080938100809180000D
:100AD0008160809380008091B10084608093B10038
:100AE0008091B00081608093B00080917A00846032
:100AF00080937A0080917A00826080937A0080915E
:100B00007A00816080937A0080917A008068809377
:100B10007A001092C10082E00E94C6030E94BE03C8
:100B200061E08DE00E94D40060E087E00E94D40084
:100B300061E089E00E94D40081E10E942A02BC01A8
:100B4000990F880B990B0E94FA0620E030E040E8EC
:100B50005AE30E945E0720E030E44CE955E40E942D
:100B60005E070E94C206CB016AE070E00E94F307B4
:100B700070935B0160935A0160E080E00E9467041B
:100B80008DE091E00E94150361E080E00E9467041F
:100B900088E191E00E94150368EE73E080E090E048
:100BA0000E94640200E010E00E94BE038EE00E94FA
:100BB0002A02EC0160E080E00E94670481E291E09B
:100BC0000E94150360E085E00E946704C0905A010E
:100BD000D0905B010D2C000CEE08FF084AE0C70125
:100BE000B601F7FE0EC041E06DE286E791E00E949B
:100BF000650366277727CB016C197D098E099F094C
:100C00004AE00E94C70260E087E00E94670487E232
:100C100091E00E941503CD3B22E0D2070CF44FC0B7
:100C200060E08BE00E9467048AE291E00E94150375
:100C300061E08BE00E9467048EE291E00E94150360
:100C400061E080E00E94670483E391E00E94150365
:100C500066E071E089E00E94050164EF71E080E0E8
:100C600090E00E94640266E271E089E00E94050162
:100C700064EF71E080E090E00E9464026AE471E059
:100C800089E00E94050164EF71E080E090E00E943D
:100C900064026DE571E089E00E94050164EF71E096
:100CA00080E090E00E94640268E871E089E00E94C0
:100CB000050164EF71E080E090E00E946402CE01E3
:100CC0008C5291408139914028F560E08BE00E9480
:100CD00067048BE391E00E94150361E08BE00E94C2
:100CE00067048EE291E00E94150361E080E00E94BB
:100CF000670481E491E00E94150368EE73E080E0F0
:100D000090E00E9464020115110509F44DCF0E9484
:100D100000004ACFCC32D14084F760E08BE00E94E3
:100D2000670488E491E00E94150361E08BE00E9473
:100D300067048EE291E00E94150361E080E00E946A
:100D400067048EE491E0D7CFE6E7F1E013821282E8
:100D500085E091E0918380838CE084838FEF8583AD
:100D60008BE0868385E0878384E0808783E08187CA
:100D700082E082871386148615861686178681E0A0
:100D80000C94C6030E94C9066894B1110C945807CC
:100D900008950E943D0788F09F5798F0B92F992732
:100DA000B751B0F0E1F0660F771F881F991F1AF056
:100DB000BA95C9F714C0B13091F00E945707B1E05D
:100DC00008950C945707672F782F8827B85F39F05C
:100DD000B93FCCF3869577956795B395D9F73EF4EF
:100DE00090958095709561957F4F8F4F9F4F089597
:100DF000E89409C097FB3EF49095809570956195B5
:100E00007F4F8F4F9F4F9923A9F0F92F96E9BB276A
:100E10009395F695879577956795B795F111F8CFE6
:100E2000FAF4BB0F11F460FF1BC06F5F7F4F8F4F51
:100E30009F4F16C0882311F096E911C0772321F047
:100E40009EE8872F762F05C0662371F096E8862FDF
:100E500070E060E02AF09A95660F771F881FDAF736
:100E6000880F9695879597F9089557FD9058440FE8
:100E7000551F59F05F3F71F04795880F97FB991FF9
:100E800061F09F3F79F087950895121613061406B6
:100E9000551FF2CF4695F1DF08C016161706180643
:100EA000991FF1CF86957105610508940895E8941E
:100EB000BB2766277727CB0197F908950E94710712
:100EC0000C94E2070E94D40738F00E94DB0720F060
:100ED000952311F00C94CB070C94D10711240C949A
:100EE00058070E94350770F3959FC1F3950F50E0A6
:100EF000551F629FF001729FBB27F00DB11D639FCC
:100F0000AA27F00DB11DAA1F649F6627B00DA11D71
:100F1000661F829F2227B00DA11D621F739FB00D17
:100F2000A11D621F839FA00D611D221F749F332787
:100F3000A00D611D231F849F600D211D822F762F20
:100F40006A2F11249F5750409AF0F1F088234AF0FD
:100F5000EE0FFF1FBB1F661F771F881F9150504069
:100F6000A9F79E3F510580F00C94CB070C945807CD
:100F70005F3FE4F3983ED4F3869577956795B795F0
:100F8000F795E7959F5FC1F7FE2B880F911D96950A
:100F9000879597F9089597F99F6780E870E060E07A
:100FA00008959FEF80EC089500240A941616170602
:100FB00018060906089500240A941216130614064A
:100FC00005060895092E0394000C11F4882352F0AD
:100FD000BB0F40F4BF2B11F460FF04C06F5F7F4F65
:100FE0008F4F9F4F089597FB072E16F4009407D05C
:100FF00077FD09D00E94570807FC05D03EF4909574
:1010000081959F4F0895709561957F4F0895A1E256
:101010001A2EAA1BBB1BFD010DC0AA1FBB1FEE1F72
:10102000FF1FA217B307E407F50720F0A21BB30BBD
:10103000E40BF50B661F771F881F991F1A9469F739
:1010400060957095809590959B01AC01BD01CF0195
:101050000895052E97FB1EF400940E94400857FD4A
:1010600007D00E94070807FC03D04EF40C944008F8
:1010700050954095309521953F4F4F4F5F4F0895C4
:1010800090958095709561957F4F8F4F9F4F0895F4
:10109000A29FB001B39FC001A39F700D811D1124B9
:1010A000911DB29F700D811D1124911D0895AA1BE1
:1010B000BB1B51E107C0AA1FBB1FA617B70710F043
:1010C000A61BB70B881F991F5A95A9F78095909575
:1010D000BC01CD010895EE0FFF1F0590F491E02DA6
:0610E0000994F894FFCF13
:1010E600FF0000000076049602C402C30250726F2D
:1010F6006A6563742042790047524F55502D32304D
:101106000054454D503A002A430044525900534F6B
:10111600494C0057415445522121004D4F495354E3
:101126000053544F50212100534F47475900445212
:0A113600454E4348454421210000C6
:00000001FF
